:020000040800F2
:1000000040180020DD010008831900084D11000888
:100010008119000847030008411C00080000000087
:10002000000000000000000000000000511B00085C
:10003000490300080000000085190008531B000850
:10004000F7010008F7010008F7010008F7010008B0
:10005000F7010008F7010008F7010008F7010008A0
:10006000F7010008F7010008F7010008F701000890
:10007000F7010008F7010008F7010008F701000880
:10008000F7010008F7010008F7010008F701000870
:10009000F7010008F7010008F7010008F701000860
:1000A000F7010008F7010008F7010008F701000850
:1000B000F7010008F7010008F7010008F701000840
:1000C000F7010008F7010008F7010008F701000830
:1000D000F7010008F7010008F7010008F701000820
:1000E000F7010008F7010008F7010008F701000810
:1000F000F7010008F7010008F7010008F701000800
:10010000F7010008F7010008F7010008F7010008EF
:10011000F7010008F7010008F7010008F7010008DF
:10012000F7010008F7010008F7010008F7010008CF
:10013000F7010008F7010008F7010008F7010008BF
:10014000F7010008F7010008F7010008F7010008AF
:10015000F7010008F7010008F7010008F70100089F
:10016000F7010008F7010008F7010008F70100088F
:10017000F7010008F7010008F7010008000000007F
:10018000F7010008F7010008F7010008F70100086F
:10019000F7010008F7010008F7010008F70100085F
:1001A000F7010008F7010008F7010008F70100084F
:1001B000F7010008F7010008F7010008F70100083F
:1001C000F7010008F7010008DFF80CD000F07AF81A
:1001D00000480047A91D0008401800200648804735
:1001E00006480047FEE7FEE7FEE7FEE7FEE7FEE71C
:1001F000FEE7FEE7FEE7FEE7E11B0008C901000895
:100200002DE9F05F0546002092469B46884606464B
:10021000814640241BE0284641464746224600F0DE
:1002200041F853465A46C01A914110D31146184618
:10023000224600F028F82D1A67EB01084F462246A7
:100240000120002100F01FF817EB00094E41201E8D
:10025000A4F10104DFDC484631462A464346BDE8A6
:10026000F09FD2B201E000F8012B491EFBD270478B
:100270000022F6E710B513460A4604461946FFF772
:10028000F0FF204610BD202A04DB203A00FA02F1DC
:10029000002070479140C2F1200320FA03F3194374
:1002A00090407047202A04DB203A21FA02F0002116
:1002B000704721FA02F3D040C2F120029140084376
:1002C00019467047064C074D06E0E06840F0010310
:1002D00094E8070098471034AC42F6D3FFF778FF54
:1002E000282100084821000870B58D1810F8014B2E
:1002F00014F0030201D110F8012B231106D110F8DC
:10030000013B03E010F8016B01F8016B521EF9D1BB
:10031000ABB110F8012B04F00C048A1A0C2C03D09A
:10032000A2EB84129B1C08E010F8014BA2EB042204
:10033000F8E712F8014B01F8014B5B1EF9D5A94211
:10034000D4D3002070BDFEE77047000070B50446AE
:1003500000F004F90546601C02D00448007804440B
:1003600000F0FCF8401BA042FAD370BDCC13002073
:100370002DE9F84F00224FF001094FF0030A4FF02A
:100380000F0E00BF0B6809FA02F42340A34270D19C
:100390004D68012D05D0022D03D0112D01D0122D55
:1003A00011D185685700CE680AFA07FC25EA0C05CA
:1003B000BE402E43866045680E79A543C6F30016FD
:1003C00096402E434660C56856008F680AFA06F4C8
:1003D000A543B7402F43C7604D68022D01D0122DB1
:1003E00012D1D5080F694FEA427C00EB8505AB4678
:1003F0002D6A4FEADC6C0EFA0CF807FA0CF725EAC6
:1004000008052F43CBF820700D79076805F0030528
:10041000A743B5403D4305604C68E40074D53D4CAE
:10042000256845F480452560246822F00307960777
:1004300004F480440094384C360F2744D7F8084819
:10044000DFF8D8C00EFA06F5604524EA050401D1AC
:1004500000252EE0324DA84201D1012529E0314D81
:10046000A84201D1022524E02F4DA84202D1032544
:100470001FE049E02D4DA84201D1042519E02C4D83
:10048000A84201D1052514E02A4DA84201D1062534
:100490000FE0294DA84201D107250AE0274DA842C7
:1004A00001D1082505E0264DA84201D1092500E02B
:1004B0000A25B540234E2543C7F808584D683468CF
:1004C000ED0324EA030400D51C431E4D34602D1DAA
:1004D0004E682C68B60324EA030400D51C43194E69
:1004E0002C6008364D683468ED0224EA030400D518
:1004F0001C43144D34600C354E682C68B60224EA57
:10050000030400D51C432C60521C102AFFF43AAFA0
:10051000BDE8F88F4438024000300140000002403E
:100520000004024000080240000C0240001002409B
:100530000014024000180240001C0240002002404B
:1005400000240240003C01400069084000D0012026
:1005500070470AB1816170470904FBE70148806870
:1005600070470000CC1300200248816802781144D3
:1005700081607047CC130020032010B500F060F8B4
:10058000002000F005F800F023F8002010BD000066
:1005900070B50D4D04464FF47A700C4A29781268F4
:1005A000B0FBF1F0B2FBF0F000F0BDFD48B9102C4B
:1005B00007D200222146501E00F022F800206C6075
:1005C00070BD012070BD0000CC130020D8130020A6
:1005D0000A4808B5016841F080510160006800F0E8
:1005E000805000900548001D016841F48041016081
:1005F000006800F48040009008BD000040380240D0
:100600000E4BF0B41B680D46C3F30223C3F107067B
:10061000042E00D90426191D072901D2002300E069
:10062000DB1E012404FA06F19C40491E2940641E89
:10063000994014402143F0BC01F096BB0CED00E062
:10064000064900F0070210B54FF6FF040868044B96
:10065000204040EA02201843086010BD0CED00E085
:100660000000FA051848F8B5016841F080510160B2
:100670000068164C00F080500090206840F48030F4
:100680002060FFF76BFF4FF47A76054605E000BF68
:10069000FFF764FF401BB0420FD86068C003F7D576
:1006A000206840F400302060FFF758FF054606E060
:1006B000FFF754FF401BB04201D90320F8BD60682A
:1006C0008003F5D50020F8BD40380240007000409E
:1006D0002DE9F04705000F4663D0444E306800F026
:1006E0000F00B84209D2306820F00F003843306064
:1006F000306800F00F00B84253D128683C4C8107A5
:1007000012D5400703D5206840F4E05020602878D7
:10071000000703D5206840F460402060A968206885
:1007200020F0F000084320602878C0072AD0304924
:1007300068680839012810D00968022810D0890794
:1007400000292EDA216821F0030101432160FFF71F
:1007500005FF804641F288390DE009688903EFE71B
:100760008901EDE7FFF7FAFEA0EB0801494502D940
:100770000320BDE8F0876868216801F00C01B1EB47
:10078000800FEFD1306800F00F00B8420BD930680D
:1007900020F00F0038433060306800F00F00B8429E
:1007A00001D00120E5E72878400705D5E9682068F1
:1007B00020F4E050084320602878000706D5286917
:1007C000216821F4604141EAC000206000F018F87F
:1007D0002168084AC1F30311515CC840064908600A
:1007E00006480068FFF7D4FE0020C2E7003C024044
:1007F0000838024016210008D8130020D01300202A
:10080000154910B51548096811F00C0213D01449A8
:10081000042A0FD0082A0ED10F4C241F2268236807
:1008200002F03F025B0207D52068C0F38810A0FBEE
:10083000010106E0084610BD2168C1F38811A1FB43
:1008400000010023FFF7DCFC2168C1F30141491CD2
:100850004900B0FBF1F010BD083802400024F4005C
:1008600040787D012DE9F84F04004FF000076ED06D
:100870002078DFF868A3AAF10408C007A8F10405EE
:100880004CD0DAF800105046C1F38101012908D09C
:100890000068C0F3810002280AD1D8F800004002A5
:1008A00006D52868800339D560680028DFD035E098
:1008B0006068B0F5803F0BD010B1B0F5A02F11D01B
:1008C000286820F480302860286820F4802002E026
:1008D000286840F480302860606890B1FFF73EFEE1
:1008E00006460AE0286840F480202860F0E700BF50
:1008F000FFF734FE801B642872D828688003F7D580
:100900000CE0FFF72BFE064605E000BFFFF726FED2
:10091000801B6428F0D828688003F7D420788007EB
:1009200042D5DAF80010504611F00C0F08D00068DC
:10093000C0F3810002280BD1D8F80000400207D490
:100940002868800718D5E068012800D114E041E14B
:10095000E0680028286817D040F001002860FFF701
:10096000FDFD064605E000BFFFF7F8FD801B0228ED
:10097000C2D828688007F7D52069296821F0F801D6
:1009800041EAC00028600FE020F001002860FFF776
:10099000E5FD064605E000BFFFF7E0FD801B0228ED
:1009A0001ED828688007F7D42078000729D58B48FF
:1009B00061696C3000298146016812D041F0010163
:1009C0000160FFF7CBFD064605E000BFFFF7C6FD5F
:1009D000801B022804D8D9F800008007F6D510E063
:1009E00089E021F001010160FFF7B8FD064604E04F
:1009F000FFF7B4FD801B02287DD8D9F800008007DE
:100A0000F6D4207840076BD5DFF8D09109F138098A
:100A1000D9F80000C0000BD4D9F8001041F0805183
:100A2000C9F80010D9F80000012700F080500090AC
:100A30006B480168C90512D40168834641F480718E
:100A40000160FFF78BFD064605E000BFFFF786FD5E
:100A5000801B64284FD8DBF80000C005F6D55F4E38
:100A6000A068683601280AD008B1052811D030687E
:100A700020F001003060306820F0040002E03068AF
:100A800040F001003060A068A0B1FFF767FD834629
:100A90000CE0306840F004003060F0E7FFF75EFDE6
:100AA000A0EB0B0141F28830814266D830688007A4
:100AB000F4D50EE0FFF752FD834607E0FFF74EFD49
:100AC000A0EB0B0141F28830814256D83068800794
:100AD000F4D42FB1D9F8001021F08051C9F80010DA
:100AE000A069C8B3DAF80010C1F3810102294BD024
:100AF0000228286800E040E020F08070286003D0E1
:100B0000FFF72CFD04463BE0FFF728FD064604E016
:100B1000FFF724FD801B02282FD828688001F7D416
:100B2000D4E90962D4E907012E4B570894F82C2028
:100B3000084303EB074343EA8611084340EA026097
:100B400040F00050C8F80000286840F0807028602D
:100B5000FFF704FD044606E03EE000BFFFF7FEFCA1
:100B6000001B022809D828688001F7D534E000BFAF
:100B7000FFF7F4FC001B022802D90320BDE8F88F20
:100B800028688001F4D427E00128D8F8000021D09B
:100B9000E16900F480028A421CD1216A00F03F0220
:100BA0008A4217D1626A47F6C0710140B1EB821FD9
:100BB00010D1A16A4FF0FF3200F4403302EB510133
:100BC000B3EB014F06D194F82C1000F07060B0EB3D
:100BD000016F01D00120D1E70020CFE708380240A3
:100BE000007000400000FFFF2DE9F04104000AD032
:100BF000606A002550B12561C4F8145094F85D0076
:100C0000A56248B10DE00120BDE8F0816068B0F553
:100C1000827FF3D0E561F1E7204684F85C5000F074
:100C20005DF8022084F85D004FF4E06220680168FE
:100C300021F040010160E068904201D9002101E00B
:100C40004FF48051B0F5706F02D0904200D0A56291
:100C50002289A088237C02F4044C277D00F4827052
:100C600003F00206228B40EA0C00237F304394F805
:100C7000206007F001073843278D02F4007210430B
:100C800003F038031843236806F08002104307F48A
:100C9000005630431860A069042394F8242001F41E
:100CA000805194F8346003EA1040A78902F01002E2
:100CB000104306F008031843236807F470621043DA
:100CC000084358602068C16921F40062C2610121B3
:100CD000256684F85D10002096E7000010B586B008
:100CE000044614216846FFF7C3FA12492068884277
:100CF0001ED11148016841F400410160006800F410
:100D0000004005900C481038016841F00401016072
:100D100000680221002200F004000590032306244D
:100D20004FF4E0508DE81F0004486946FFF720FBB0
:100D300006B010BD003C00404038024000080240B0
:100D40002DE9F84F044690F85C0000271D46012865
:100D5000164689460DD04FF0010B84F85CB0FFF7C2
:100D6000FDFB804694F85D00BA46012804D00227B6
:100D7000A3E00220BDE8F88FB9F1000F73D0002E78
:100D800071D0A2680321C4F83890A68784F85D105A
:100D9000C4F860A0E687C4F840A0A4F844A0A4F872
:100DA00046A0B2F5004FC4F850A0C4F84CA009D139
:100DB0002068016821F0400101602068016841F469
:100DC0008041016020680168490603D4016841F050
:100DD00040010160E068B0F5E06F606823D908B1B8
:100DE000012E1CD1A06B21680088C86006E0206835
:100DF0008168890709D5A16B0988C160A06B801C37
:100E0000A063E08F401EE08709E0FFF7A7FBA0EB9F
:100E10000800A84202D3681C01D045E0A5B3E08FCA
:100E20000028E4D135E008B1012E2FD1E08F2168F0
:100E30000128A06B02D90088C8600EE00078087312
:100E400014E0E08722E020688168890714D5E18FEB
:100E50000129A16B08D90988C160A06B801CA0631F
:100E6000E08F801EEDE727E009780173A06B401C3E
:100E7000A063E08F401EE4E7FFF770FBA0EB0800E3
:100E8000A84202D3681C01D00EE06DB1E08F0028AB
:100E9000D9D142462946204600F075FD08B12020F0
:100EA0002066A06810B105E0032706E02068C1684D
:100EB00080680090206E00B1012784F85DB038464C
:100EC00084F85CA056E72DE9F05F8B4690F85C1043
:100ED00000271D460A9E0129924604464FF001094B
:100EE0000ED0012084F85C00FFF738FB804694F8B0
:100EF0005D00616801280CD0B1F5827F07D102E066
:100F00000220BDE8F09FA16809B9042801D002279A
:100F1000FFE0BBF1000F24D0BAF1000F21D005B3E0
:100F200094F85D00042802D0052084F85D00A4F840
:100F300044500020A5874FF4E062C4F838B0C4F8EC
:100F400040A0E16820669142E0642065A4F8465024
:100F5000E58701D8012D06D92068416821F4805128
:100F600005E00127D5E02068416841F480514160E7
:100F700020680168490603D4016841F0400101601E
:100F8000E0689042606845D908B1012D3AD1A06B64
:100F900021680088C860A06B801CA063E08F401EA1
:100FA000E0872FE02068816889070FD5E18F69B15C
:100FB000B9F1010F0AD1A26B4FF000091188C1608D
:100FC000A06B801CA063E08F401EE08720688168D2
:100FD000C9070FD0B4F8461061B1C0684FF00109DD
:100FE000226C1080206C801C2064B4F84600401EE7
:100FF000A4F84600FFF7B2FAA0EB0800B04201D314
:10100000701C74D1E08F0028CCD1B4F846000028C1
:10101000C8D175E008B1012D6BD1E08F216801289E
:10102000A06B07D90088C860A06B801CA063E08F0C
:10103000801E06E000780873A06B401CA063E08F60
:10104000401EE08755E02068816889071AD5E18F46
:10105000C1B1B9F1010F15D1E18F0129A16B07D9F8
:101060000988C160A06B801CA063E08F801E06E031
:1010700009780173A06B401CA063E08F401EE087DD
:101080004FF0000920688168C90728D0B4F84610DD
:1010900029B3B4F84610012914D9C068216C08801E
:1010A000206C801C2064B4F84600801EA4F8460022
:1010B000B4F84600012810D82068416841F48051F6
:1010C00041600AE0007B216C0870206C401C2064A9
:1010D000B4F84600401EA4F846004FF00109FFF79F
:1010E0003DFAA0EB0800B04202D3701C01D018E01A
:1010F000BEB1E08F0028A6D1B4F846000028A2D1E6
:1011000042463146204600F03EFC10B120202066C9
:101110000127012084F85D000021384684F85C1026
:10112000EFE60327F5E7401EB0F1807F10B501D34D
:10113000012010BD4FF0E02460610F21601700F026
:1011400013FE0020A0610721216110BDFEE7000011
:101150002DE9F04FFE4887B0016841F004010160BD
:10116000016801F004010591016841F0020101608C
:10117000016801F002010591016841F00801016078
:10118000016801F008010591016841F00101016069
:1011900000680022DFF8BCB3022100F001000590D6
:1011A0005846FFF7D6F94FF400485846002241460A
:1011B000FFF7CFF94FF40059584600224946FFF790
:1011C000C8F94FF4804A584600225146FFF7C1F94A
:1011D000002258460421FFF7BCF9DF49DF480A68BE
:1011E00022F480720A600A6822F040020A600A68EB
:1011F000DB4C22F020020A60016821F4807101605A
:101200006169D44821F4805161611430616921F42D
:10121000006161610168022521F48051016002686A
:101220008615012122F4006202600020CA4F009658
:101230000395143FCDE9011069463846FFF798F849
:101240004020694600903846FFF792F82020694612
:1012500000903846FFF78CF8C0486946009614386D
:10126000FFF786F8A614694620460096FFF780F837
:10127000E714694620460097FFF77AF86946584612
:101280000096FFF775F8694658460097FFF770F823
:10129000694658460095FFF76BF869465846CDF801
:1012A0000080FFF765F869465846CDF80090FFF7D3
:1012B0005FF869465846CDF800A0FFF759F80420BA
:1012C000694600905846FFF753F81420FFF73EF8A0
:1012D000012000F0A5FC0520FFF738F8002000F001
:1012E00097FC012000F09EFD012000F091FC002001
:1012F00000F098FD3220FFF729F8002000F088FC6C
:10130000CB2000F08FFD012000F082FC392000F09E
:1013100089FD2C2000F086FD002000F083FD3420A4
:1013200000F080FD022000F07DFD002000F070FC48
:10133000CF2000F077FD012000F06AFC002000F0D3
:1013400071FDC12000F06EFD302000F06BFD00202B
:1013500000F05EFCE82000F065FD012000F058FC84
:10136000852000F05FFD002000F05CFD782000F09B
:1013700059FD002000F04CFCEA2000F053FD012054
:1013800000F046FC002000F04DFD002000F04AFD7A
:10139000002000F03DFCED2000F044FD012000F0B5
:1013A00037FC642000F03EFD032000F03BFD1220DE
:1013B00000F038FD812000F035FD2021F72000F0FD
:1013C00097FE2021C02000F093FE1021C12000F0E4
:1013D0008FFE002000F01CFCC52000F023FD012042
:1013E00000F016FC2E2000F01DFD282000F01AFD54
:1013F0008621C72000F07CFE4821362000F078FED0
:1014000055213A2000F074FE002000F001FCB120CC
:1014100000F008FD012000F0FBFB002000F002FDC1
:10142000182000F0FFFC002000F0F2FBB62000F0D6
:10143000F9FC012000F0ECFB082000F0F3FC822016
:1014400000F0F0FC272000F0EDFC0021F22000F07D
:101450004FFE002000F0DCFB2A2000F0E3FC01201E
:1014600000F0D6FB002000F0DDFC002000F0DAFCEC
:10147000002000F0D7FCEF2000F0D4FC002000F0AA
:10148000C7FB2B2000F0CEFC012000F0C1FB0020A8
:1014900000F0C8FC002000F0C5FC012000F0C2FCF8
:1014A0003F2000F0BFFC0121262000F021FE00209B
:1014B00000F0AEFBE02000F0B5FC012000F0A8FB3E
:1014C0000F2000F0AFFC312000F0ACFC2B2000F02E
:1014D000A9FC0C2000F0A6FC0E2000F0A3FC0820C4
:1014E00000F0A0FC4E2000F09DFCF12000F09AFCE2
:1014F000372000F097FC072000F094FC102000F04B
:1015000091FC032000F08EFC0E2000F08BFC0920E3
:1015100000F088FC002000F085FC002000F078FB43
:10152000E12000F07FFC012000F072FB002000F0C1
:1015300079FC0E2000F076FC142000F073FC0320F0
:1015400000F070FC112000F06DFC07200AE00000A4
:10155000303802400004024014080240140C0240DB
:101560000000024000F05EFC312000F05BFCC12076
:1015700000F058FC482000F055FC082000F052FC18
:101580000F2000F04FFC0C2000F04CFC312000F04C
:1015900049FC362000F046FC0F2000F043FC002000
:1015A00000F036FB112000F03DFC012000F030FB84
:1015B000002000F037FC4FF47A70FEF7C7FE0020E1
:1015C00000F026FB292000F02DFC012000F020FB7C
:1015D000002000F027FC002000F01AFB2C2000F077
:1015E00021FC012000F014FB002000F01BFC07B0E0
:1015F000BDE8F08F2DE9FF4F144607460E464FF029
:101600000109C2EBC43083B041000FFA81FA3119ED
:10161000C2F101020FFA82F8069AB8B289B2002527
:1016200000F070F8301B069A81B2B8B200F06AF888
:101630003819069AB1B280B200F064F8B1B2381B22
:1016400057E000BFB8F1000F09DB0AF102000FFA02
:1016500080FA641E08EB0A0024B20FFA80F809F140
:1016600002000FFA80F96D1C08EB09002DB20FFA89
:1016700080F87819019006EB040B069A1FFA8BF19B
:1016800080B200F03FF8781B069A1FFA8BF10090A9
:1016900080B200F037F80198A6EB040B1FFA8BF12B
:1016A000069A80B200F02EF800981FFA8BF1069A85
:1016B00080B200F027F83819019006EB050B069A66
:1016C0001FFA8BF180B200F01DF8381B069A1FFA42
:1016D0008BF1009080B200F015F80198A6EB050B95
:1016E0001FFA8BF1069A80B200F00CF800981FFAEE
:1016F0008BF1069A80B200F005F8A542A2DB07B094
:10170000BDE8F08F38B514460D4A938852885B1EA9
:10171000521E9BB292B200F06DFB002000F078FAEE
:101720002C2000F07FFB012000F072FA200A8DF8D7
:101730000000012168468DF8014000F0EBFB38BD48
:1017400000000020F8B51C4616460B190244069D01
:101750005B1E521E9BB292B200F04CFB002000F0C8
:1017600057FA2C2000F05EFB012000F051FA280A05
:101770008DF8000006FB04F168468DF8015000F07A
:10178000C9FBF8BD0C4908B5097801290ED0032919
:101790000CD0022901D0042907D1F12300904FF485
:1017A000A07200210846FFF7CDFF08BDF0224FF4DC
:1017B000A1730090F5E700000000002010B5134C65
:1017C00001284FF0010105D0022806D0032808D0D7
:1017D00004280ED02170882106E0022020702821E4
:1017E0000AE0032020704821BDE81040362000F0B8
:1017F0007FBC04202070E821362000F079FCA0880E
:10180000E0806188A180608010BD000000000020A1
:101810002DE9F04F87B014216846FEF729FD4048B6
:10182000016841F020010160016801F0200105918B
:10183000016841F080010160016801F080010591BB
:10184000016841F004010160016801F004010591A3
:10185000016841F002010160016801F00201059197
:10186000016841F008010160016801F0080105917B
:10187000016841F00101016000684FF4B076DFF8C3
:10188000A4A0002200F00100314605905046FEF76A
:1018900060FEDFF894B04FF606070022394658463E
:1018A000FEF757FE4FF48278204800224146FEF7AB
:1018B00050FE4FF4C0591E4800224946FEF749FE2B
:1018C00000246946402000901A48CDE901041A48D6
:1018D000FEF74EFD01250096CDE9015469465046BC
:1018E0000394FEF745FD00976946CDE9015458463B
:1018F0000394FEF73DFDCDF800806946CDE9015423
:101900000A480394FEF734FDCDF800906946CDE90E
:10191000015407480394FEF72BFD07B0BDE8F08F94
:10192000303802400008024000040240000C02402F
:10193000000002400000111000140240F0B40F48F3
:101940004FF4E0640C4E002100F114072823C0E995
:1019500002147215016187E80E000A2401624162D7
:101960004FF48275C0E90A1401634163C0E9006560
:10197000F0BCFFF739B90000003C0040DC13002048
:10198000FEE770477047F8B515460E4604460B460D
:101990004FF4C0510092002200F01AF888B90022DA
:1019A000334680212046009500F076F848B90022A1
:1019B00033464FF4C0612046009500F009F8002836
:1019C00004D0206E40F0200020660320F8BD000007
:1019D0002DE9FC47994617460E4604460A9DFEF738
:1019E000BDFD411BA9EB0105FEF7B8FD8046294866
:1019F0004FF4C06A0068C0EBC00000EB8000000D2F
:101A000068433FE0564502D10FB9007B0190B9F120
:101A1000FF3F38D0FEF7A2FDA0EB0800A84203D29A
:101A200015B1009860B32CE02068416821F0E00116
:101A300041606068B0F5827F0BD1A068B0F5004FBF
:101A400002D0B0F5806F04D12068016821F0400118
:101A50000160A06AB0F5005F09D12068016821F437
:101A6000005101602068016841F4005101600121CA
:101A700084F85D10002084F85C000320BDE8FC873A
:101A80000025401E0090206881683140B942B9D1DC
:101A90000020F3E7D81300202DE9F8431E469146B5
:101AA00088460446089DFEF759FD401B351AFEF78F
:101AB00055FD074625480068C0F3CB30684338E041
:101AC000701C37D0FEF74AFDC01BA84203D215B1E7
:101AD000009860B32CE02068416821F0E00141608B
:101AE0006068B0F5827F0BD1A068B0F5004F02D0DE
:101AF000B0F5806F04D12068016821F040010160D9
:101B0000A06AB0F5005F09D12068016821F4005196
:101B100001602068016841F400510160012184F8EE
:101B20005D10002084F85C000320BDE8F8830025E8
:101B3000401E00902068816838EA010004D000212E
:101B40004945BDD10020F0E70121F9E7D813002075
:101B50007047FEF709BD000030B593B030216846EC
:101B6000FEF786FB14210CA8FEF782FB1A480168D9
:101B700041F080510160006800F0805011901748DA
:101B8000016841F440410160006800250DF1200C1E
:101B90000224009400F4404011900822D823CDE99B
:101BA000064510218CE81C0001200B94CDE90301AF
:101BB0006846FEF757FEFEF755FDE2024FF4A051CE
:101BC0000F20CDE90F120CAA072182E831000CA8E2
:101BD000FEF77EFD13B030BD40380240007000407B
:101BE0000248016841F470010160704788ED00E02F
:101BF0004FF4005102460148FEF7ABBC000402401E
:101C0000042102460148FEF7A4BC00000004024083
:101C10004FF4004102460148FEF79BBC000402401D
:101C20004FF4804102460148FEF793BC0004024095
:101C3000022102460148FEF78CBC0000000402406D
:101C4000FEE700002DE9FE4FDFF8F8B000228946DC
:101C5000824604215846FEF77CFC00273C463E465F
:101C60004FEA070500F074F880B3761C4FF0FF3898
:101C70003549012235484346F6B2FFF761F832494B
:101C80000223324801AA491CCDF80080FFF71BF956
:101C90002D4901222D484346491EFFF751F82A4994
:101CA00002232A4802AA491CCDF80080FFF70BF94D
:101CB000BDF808106D1CBDF80400EDB2102D49BA36
:101CC00040BA17FA81F714FA80F4CBD301225846B0
:101CD0000421FEF73EFC102E02D20020BDE8FE8F4C
:101CE000380940F64852904247F2481101D2104656
:101CF00002E0884200D9084640F6E442210947F252
:101D00003053914201D2114602E0994200D919465E
:101D1000A1F6E441A0F6485001EB810246F64C01E1
:101D2000C0EB00109201B2FBF1F100014FF4C84288
:101D3000B0FBF2F0C1F5A071A9F80010AAF80000FC
:101D40000120CBE7000C024013210008DC13002027
:101D50000448402110B5FEF7F7FB08B1002010BD84
:101D6000012010BD00140240090700284FEA11614C
:101D700004DB00F1E02080F80014704700F00F0051
:101D800000F1E02080F8141D704702E008C8121F1F
:101D900008C1002AFAD170477047002001E001C154
:101DA000121F002AFBD17047FEF7E6FBFFF7D4FEB7
:101DB000FFF72EFDFFF7C2FDFFF7CAF90320FFF77B
:101DC000FDFC4FF4FC60FFF7DDFC094C0849891C61
:101DD000881EFFF737FFFFF7BBFF0028F6D06088AB
:101DE00000230A2201B2208800B2FFF703FCEDE7CE
:101DF000C81300202DE9F0411C4615460E46074643
:101E00000020FFF7F5FE2A2045EA074100F054F9CB
:101E10002B2044EA064100F04FF9BDE8F0410120D3
:101E2000FFF7E6BE2DE9F04104460020FFF7E0FE93
:101E30000120FFF7E5FE3348334A016821F4807141
:101E400001600168314D21F04001016003683049B3
:101E500023F020030360106820F48070106068692C
:101E600020F480506861686920F400606861086847
:101E700020F480500860086820F4006008600020AA
:101E8000FFF7D6FE1F4FAE1504F001023146143F96
:101E90003846FEF75EFB40213846C4F34002FEF7A9
:101EA00058FB20213846C4F38002FEF752FB164847
:101EB0003146C4F3C0021438FEF74BFBAF1428467A
:101EC0003946C4F30012FEF744FBEE1428463146AF
:101ED000C4F34012FEF73DFB0D4D3946C4F38012AA
:101EE000143D2846FEF735FBE20931462846FEF749
:101EF00030FB0120FFF79CFEBDE8F0410120FFF719
:101F000077BE000014080240140C0240000002409A
:101F1000140402402DE9F05F0E4604460020FFF74E
:101F200067FE0120FFF76CFE5F48604A016821F4FC
:101F30008071016003685E4D5E4923F040030360D9
:101F4000036823F020030360106820F480701060A1
:101F5000686920F480506861686920F400606861F5
:101F6000086820F480500860086820F40060086069
:101F7000002790E00020FFF75BFE20784FF480718F
:101F8000DFF8249100F00102A9F114094846FEF798
:101F9000E0FA20784021C0F340024846FEF7D9FA23
:101FA00020782021C0F380024846FEF7D2FA20783C
:101FB0004FF48071DFF8F480A8F11408C0F3C00278
:101FC0004046FEF7C6FA20784FF4805B5946C0F3CE
:101FD00000122846FEF7BDFA20784FF40061C0F3E6
:101FE00040122846FEF7B5FA20785946DFF8C4A01B
:101FF000AAF1140AC0F380125046FEF7AAFA20781C
:102000004FF40061C2095046FEF7A3FA0120FFF722
:102010000FFE0020FFF70CFE60784FF4807100F097
:1020200001024846FEF795FA60784021C0F340026D
:102030004846FEF78EFA60782021C0F380024846B9
:10204000FEF787FA60784FF48071C0F3C002404613
:10205000FEF77FFA60785946C0F300122846FEF773
:1020600078FA60784FF40061C0F340122846FEF71A
:1020700070FA60785946C0F380125046FEF769FA4C
:1020800060784FF40061C2095046FEF762FA012001
:10209000FFF7CEFD7F1CB742FFF46CAFBDE8F05FE9
:1020A0000120FFF7A5BD000014080240140C0240F7
:1020B000000002401404024070B50C4605460020A2
:1020C000FFF7A6FD2846FFF7ADFE0120FFF7A0FDB4
:1020D000200EFFF7A7FEC4F30740FFF7A3FEC4F3EB
:1020E0000720FFF79FFEE0B2BDE87040FFF79ABE01
:1020F00070B50D4604460020FFF78AFD2046FFF725
:1021000091FE0120FFF784FD2846BDE87040FFF7EF
:1021100089BE90D000000000000000000000010215
:1021200003040607080900004821000800000020F9
:10213000DC130000E802000860250008DC13002022
:10214000640400009A1D000880080100F0004001AE
:102150000001100B80FFFFFF0FFEFFFF01C00912FF
:102160001F0D1303E00912BF1672070952CC1B534F
:10217000339E2D53793F3E02E0FC0951F357FD9EFB
:1021800005577BCC206737C02066803B66004D0238
:10219000FF0001012F016988754D755F0530687179
:1021A0001B359559E6720709520C7013331E1B6AD2
:1021B00060D066F0F803D4F801096AF0D0226F0904
:1021C00039D0151B2A78D025005330C0093D14049E
:1021D000761F950538D35E0C6404363068216C0593
:1021E000ED680D41380466808366C09566E0A7718E
:1021F00009711B5680DD3D39056EF00E0303D4F8DE
:1022000001096EF038040E416F38040522685ECC77
:1022100033035F309E450309EAD05D2B0557FD1E51
:10222000755B7B0C71BE3761057D7305061900680F
:102230000D2A70080EED6FA0050545680D2AA00552
:102240006F001E6E0402E83F096DF80A6DD8090F91
:102250003803CC380409FFD00D8408070DFBA00516
:102260000D4570086D13041009183C3C3C181818F3
:1022700000031549BC0563636322970830053636B1
:102280007F36042DE7095C0D0C3E6361603E03035D
:1022900043633E0CF4094C086163060C1833635F1A
:1022A000043C0A1C36361C3B6E66663B0D0ABC04B9
:1022B000303060250A1318181340043018183A10EB
:1022C00005180C0C06015C040C0C1801097008427E
:1022D000663CFF3C664298D0071818FF181818ADE6
:1022E00011447D480C0110CB414B3C0B0103070E00
:1022F0001C3870E0C0807F04123ED44007676B73C7
:1023000063633E8730041C3C0C014DFA0D10043E03
:102310006303C160053061637F0F5006031E030332
:10232000032D4C0A060E1E3666667F06061D0B1030
:10233000067F6060607E1D42734B131C300F115E80
:10234000515A127F4B21D051872178823E1E310B8A
:10235000B0063F0303063CAF81E2510F41E12194F7
:102360007C066030180C06200A327E034575311A4F
:10237000212261691547570C009311F040076F6BDC
:102380006B6E6060F01404081C3601167FD941475B
:1023900010053333333E0442334D10041E3361D4F1
:1023A0003F6061220D200500007C361B4005333361
:1023B000367CF0A00A3331343C343031337F0F8027
:1023C000043030783C58076F6363371D003B31673A
:1023D00051692955310141F0260FED400506066689
:1023E000660F1007733336363C366E3273782A78B0
:1023F0001A723069800663777F6B634B6008636392
:10240000737B7F6F675A31D1155883361CD2723077
:10241000963568600863636B6F3E0607F081691547
:10242000956405301C0603B3A004FFDB99A5626325
:1024300001A23E0F8004361C081E4F6B6B0C03106C
:10244000060000C3C366E450053C66C3C30F3110E9
:10245000614BA8047F634358423CE14330301E4C3B
:102460000A80C0E070381C0E0703BE0E5992540457
:102470000C0C3CB10D163B0F2D0203FE0C3B0C5C0B
:10248000053C46063E75031300706335C56E6E7FCE
:10249000071B3E63B6598528040E0606D1612D49F7
:1024A0002E627E1E84061C3632307C4A1199223BF5
:1024B0002C373E06B5115A2B363B3A454A19713234
:1024C0001CB4493A2306065D75E2112D1946118A9E
:1024D0004577621CE17D810820046E7F6B01710FDE
:1024E000497891967D3903611E723E9851965D95AB
:1024F00003A005006E3B33B46C053E63380EC00389
:1025000028050818187E84631B0E6921D191FF15D8
:10251000DE57361CE049C425E1711E111C958E3929
:10252000937E3FC2031F7F66390455E01E0EAF0441
:102530002A70F26E0EA8043D53055D0C04211A2189
:102540002247187056AE6EF90D0C051C70D8D87065
:10255000BF092DE3106E10910500040024F4000063
:04000005080001C925
:00000001FF
